{"abi":[{"type":"constructor","inputs":[{"name":"_whitelistStartTime","type":"uint256","internalType":"uint256"},{"name":"_whitelistEndTime","type":"uint256","internalType":"uint256"}],"stateMutability":"nonpayable"},{"type":"function","name":"isWhitelisted","inputs":[{"name":"_projectId","type":"uint256","internalType":"uint256"},{"name":"_address","type":"address","internalType":"address"}],"outputs":[{"name":"","type":"bool","internalType":"bool"}],"stateMutability":"view"},{"type":"function","name":"projects","inputs":[{"name":"","type":"uint256","internalType":"uint256"}],"outputs":[{"name":"tokenAddress","type":"address","internalType":"address"},{"name":"tokenSupply","type":"uint256","internalType":"uint256"},{"name":"tokenPrice","type":"uint256","internalType":"uint256"},{"name":"startTime","type":"uint256","internalType":"uint256"},{"name":"endTime","type":"uint256","internalType":"uint256"},{"name":"softCap","type":"uint256","internalType":"uint256"},{"name":"isActive","type":"bool","internalType":"bool"}],"stateMutability":"view"},{"type":"function","name":"signUpForWhitelist","inputs":[{"name":"_projectId","type":"uint256","internalType":"uint256"}],"outputs":[],"stateMutability":"nonpayable"},{"type":"function","name":"whitelistEndTime","inputs":[],"outputs":[{"name":"","type":"uint256","internalType":"uint256"}],"stateMutability":"view"},{"type":"function","name":"whitelistStartTime","inputs":[],"outputs":[{"name":"","type":"uint256","internalType":"uint256"}],"stateMutability":"view"},{"type":"event","name":"IDOCreated","inputs":[{"name":"projectId","type":"uint256","indexed":false,"internalType":"uint256"},{"name":"tokenAddress","type":"address","indexed":false,"internalType":"address"},{"name":"tokenSupply","type":"uint256","indexed":false,"internalType":"uint256"},{"name":"tokenPrice","type":"uint256","indexed":false,"internalType":"uint256"},{"name":"startTime","type":"uint256","indexed":false,"internalType":"uint256"},{"name":"endTime","type":"uint256","indexed":false,"internalType":"uint256"},{"name":"softCap","type":"uint256","indexed":false,"internalType":"uint256"}],"anonymous":false},{"type":"event","name":"Whitelisted","inputs":[{"name":"user","type":"address","indexed":true,"internalType":"address"},{"name":"projectId","type":"uint256","indexed":true,"internalType":"uint256"}],"anonymous":false}],"bytecode":{"object":"0x6080604052348015600f57600080fd5b50604051610437380380610437833981016040819052602c91608b565b808210607e5760405162461bcd60e51b815260206004820152601c60248201527f496e76616c69642077686974656c6973742074696d652072616e676500000000604482015260640160405180910390fd5b60019190915560025560ae565b60008060408385031215609d57600080fd5b505080516020909101519092909150565b61037a806100bd6000396000f3fe608060405234801561001057600080fd5b50600436106100575760003560e01c8063107046bd1461005c5780637d22c35c146100fb5780639292caaf14610142578063cc58f57714610159578063ebdfd7221461016e575b600080fd5b6100b561006a3660046102ef565b600360208190526000918252604090912080546001820154600283015493830154600484015460058501546006909501546001600160a01b0390941695929492939192909160ff1687565b604080516001600160a01b0390981688526020880196909652948601939093526060850191909152608084015260a0830152151560c082015260e0015b60405180910390f35b610132610109366004610308565b6000918252602082815260408084206001600160a01b0393909316845291905290205460ff1690565b60405190151581526020016100f2565b61014b60015481565b6040519081526020016100f2565b61016c6101673660046102ef565b610177565b005b61014b60025481565b6001544210156101dd5760405162461bcd60e51b815260206004820152602660248201527f57686974656c69737420726567697374726174696f6e206e6f742073746172746044820152651959081e595d60d21b60648201526084015b60405180910390fd5b60025442111561022f5760405162461bcd60e51b815260206004820181905260248201527f57686974656c69737420726567697374726174696f6e2068617320656e64656460448201526064016101d4565b60008181526020818152604080832033845290915290205460ff16156102a35760405162461bcd60e51b8152602060048201526024808201527f416c72656164792077686974656c697374656420666f7220746869732070726f6044820152631a9958dd60e21b60648201526084016101d4565b600081815260208181526040808320338085529252808320805460ff191660011790555183927f6ea640312e182de387819fbeb13be00db3171a445412852248559054871c419991a350565b60006020828403121561030157600080fd5b5035919050565b6000806040838503121561031b57600080fd5b8235915060208301356001600160a01b038116811461033957600080fd5b80915050925092905056fea26469706673582212204542e1af9dad88103709b3ae317f6061493d713f6f5307b0f4b553a4e079b98564736f6c634300081a0033","linkReferences":{}},"methodIdentifiers":{"isWhitelisted(uint256,address)":"7d22c35c","projects(uint256)":"107046bd","signUpForWhitelist(uint256)":"cc58f577","whitelistEndTime()":"ebdfd722","whitelistStartTime()":"9292caaf"},"id":0}