{"abi":[{"type":"constructor","inputs":[{"name":"_owner","type":"address","internalType":"address"}],"stateMutability":"nonpayable"},{"type":"function","name":"balances","inputs":[{"name":"","type":"address","internalType":"address"}],"outputs":[{"name":"","type":"uint256","internalType":"uint256"}],"stateMutability":"view"},{"type":"function","name":"owner","inputs":[],"outputs":[{"name":"","type":"address","internalType":"address"}],"stateMutability":"view"}],"bytecode":{"object":"0x6080604052348015600f57600080fd5b50604051610180380380610180833981016040819052602c916050565b600080546001600160a01b0319166001600160a01b0392909216919091179055607e565b600060208284031215606157600080fd5b81516001600160a01b0381168114607757600080fd5b9392505050565b60f48061008c6000396000f3fe6080604052348015600f57600080fd5b506004361060325760003560e01c806327e235e31460375780638da5cb5b146067575b600080fd5b605460423660046090565b60016020526000908152604090205481565b6040519081526020015b60405180910390f35b6000546079906001600160a01b031681565b6040516001600160a01b039091168152602001605e565b60006020828403121560a157600080fd5b81356001600160a01b038116811460b757600080fd5b939250505056fea264697066735822122092d50038d59faf4eb2ca9456001b373c052890e37fdf700c3d5e188e2eebc26a64736f6c634300081a0033","linkReferences":{}},"methodIdentifiers":{"balances(address)":"27e235e3","owner()":"8da5cb5b"},"id":0}